:1000000071C0000079C0000077C0000075C000001A
:1000100073C0000071C000006FC000006DC0000020
:100020006BC0000069C0000067C0000065C0000030
:1000300063C0000061C000005FC000005DC0000040
:100040005BC0000059C0000057C0000055C0000050
:1000500053C0000051C000004FC000004DC0000060
:100060004BC0000049C0000047C0000045C0000070
:1000700043C0000041C000003FC000003DC0000080
:100080003BC0000039C0000037C0000035C0000090
:1000900033C0000031C000002FC000002DC00000A0
:1000A0002BC0000029C0000027C0000025C00000B0
:1000B00023C0000021C000001FC000001DC00000C0
:1000C0001BC0000019C0000017C0000015C00000D0
:1000D00013C0000011C000000FC000000DC00000E0
:1000E0000BC0000011241FBECFEFD1E2DEBFCDBF99
:1000F00000E00CBF30D081C083CF9A9AE1E0F1E0FC
:100100008081886080838081846080830895A29844
:100110000895A29A0895E2E0F1E08081877F8083CC
:100120000895E2E0F1E08081886080830895E2E054
:10013000F1E080818B7F80830895E2E0F1E08081AF
:10014000846080830895E3DFE6DFF1CF0895E1DF87
:10015000E8DFF3CF0895D1DFFADF2FEF8FEF9CE2D6
:10016000215080409040E1F700C00000D0DF2FEF29
:100170008FEF9CE2215080409040E1F700C00000EA
:10018000C8DF2FEF8FEF9CE2215080409040E1F7D5
:1001900000C00000C0DF2FEF8FEF9CE221508040B5
:1001A0009040E1F700C00000BCDF2FEF8FEF9CE232
:1001B000215080409040E1F700C00000B8DF2FEFF1
:1001C0008FEF9CE2215080409040E1F700C000009A
:1001D000B4DF2FEF8FEF9CE2215080409040E1F799
:1001E00000C00000B0DF2FEF8FEF9CE22150804075
:0E01F0009040E1F700C00000AFCFF894FFCFC1
:00000001FF
