:100000000C9434000C9451000C9451000C94510049
:100010000C9451000C9451000C9451000C9451001C
:100020000C9451000C9451000C9451000C9451000C
:100030000C9451000C9451000C9451000C945100FC
:100040000C9451000C9451000C9451000C945100EC
:100050000C9451000C9451000C9451000C945100DC
:100060000C9451000C94510011241FBECFEFD8E026
:10007000DEBFCDBF11E0A0E0B1E0ECE9F8E002C0E6
:1000800005900D92A63CB107D9F721E0A6ECB1E0AE
:1000900001C01D92A63CB207E1F70E9491010C94A9
:1000A0004C040C94000084B1876084B98AB1806FDD
:1000B0008AB985B1887F85B98BB18F708BB9089566
:1000C0008FE99FE00197F1F700C0000028982A9877
:1000D00080E38BB9299AEFE1FEE43197F1F700C094
:1000E00000002998EFE9FFE03197F1F700C0000028
:1000F00028982A988BB9299AEFE1FEE43197F1F715
:1001000000C000002998EFE9FFE03197F1F700C047
:10011000000028982A988BB9299A8FE19EE40197CC
:10012000F1F700C000002998EFE9FFE03197F1F7FF
:1001300000C0000028982A9880E28BB9299A8FE1A4
:100140009EE40197F1F700C00000299808959BB143
:100150009F709BB99BB1282F207F922B9BB9289829
:100160002A98299AEFE1FEE43197F1F700C00000E8
:1001700029989BB19F709BB99BB18295807F892BF9
:100180008BB928982A98299A8FE19EE40197F1F774
:1001900000C00000299808950E9460008FE99FE048
:1001A0000197F1F700C0000088E20E94A70081E0FB
:1001B0000E94A70086E00E94A7008EE00E94A70090
:1001C00080E80E94A700089580E80E94A700089593
:1001D000823071F018F4813031F00895833069F085
:1001E000843081F008958FE7860F0E94A70008955C
:1001F0008FEB860F0E94A700089583E9860F0E9467
:10020000A700089583ED860F0E94A700089581E05E
:100210000E94A7000895CF93C42F0E94E8008BB1DD
:100220008F708BB98BB19C2F907F892B8BB9289ABB
:100230002A98299A8FE19EE40197F1F700C0000007
:1002400029988BB18F708BB98BB1C295C07FC82BA9
:10025000CBB9289A2A98299A8FE19EE40197F1F761
:1002600000C000002998CF9108959BB19F709BB961
:100270009BB1282F207F922B9BB9289A2A98299AE4
:10028000EFE1FEE43197F1F700C0000029989BB13F
:100290009F709BB99BB18295807F892B8BB9289ADF
:1002A0002A98299A8FE19EE40197F1F700C0000097
:1002B000299808950F931F93CF93DF93D82FC62FBC
:1002C000FA014081442369F08F010F5F1F4F6C2FAB
:1002D0008D2F0E940B01CF5FF80141918F014111D9
:1002E000F6CFDF91CF911F910F9108950F931F9338
:1002F000CF93DF93883080F48B01880F880F880FAD
:10030000805C0E94A700E801085F1F4F89910E944E
:100310003501C017D107D1F7DF91CF911F910F9110
:100320000895EF92FF920F931F93CF93DF93CDB772
:10033000DEB7C854D1090FB6F894DEBF0FBECDBFEB
:1003400088E0E0E0F1E0DE01119601900D928A95DF
:10035000E1F788E0E8E0F1E0DE01199601900D9206
:100360008A95E1F788E0E0E1F1E0DE015196019045
:100370000D928A95E1F788E0E8E1F1E0DE01599617
:1003800001900D928A95E1F788E0E0E2F1E0DE016C
:10039000919601900D928A95E1F788E0E8E2F1E00C
:1003A000DE01999601900D928A95E1F788E0E0E3ED
:1003B000F1E0DE01D19601900D928A95E1F70E945D
:1003C00053000E94CC00BE016F5F7F4F81E00E940E
:1003D0007601BE01675F7F4F82E00E947601BE0119
:1003E0006F5E7F4F83E00E947601BE01675E7F4FA4
:1003F00084E00E947601BE016F5D7F4F85E00E9420
:100400007601BE01675D7F4F86E00E947601BE01E6
:100410006F5C7F4F87E00E9476010E9407010E9477
:10042000E4008CE00E94A70048E351E064E081E032
:100430000E945A012FEF83E294EF215080409040B8
:10044000E1F700C000000E9407010E94E4006894E8
:10045000EE24E2F8F12C0AC0812F0E9435011F5FC3
:100460001530D1F721E0E21AF10811F011E0F4CFD4
:1004700080EC0E94A7006894EE24E2F8F12C0AC0F8
:10048000812F0E9435011F5F1530D1F781E0E81AF6
:10049000F10811F011E0F4CF9FEF23E284EF9150C7
:1004A00020408040E1F700C000000E94070142E4C4
:1004B00051E065E081E00E945A014AE451E064E0C5
:1004C00082E00E945A019FEF23E284EF9150204086
:1004D0008040E1F700C000000E94070165E081E074
:1004E0000E94E80081E20E94350180E40E9435010B
:1004F00083E20E94350184E20E94350185E20E9478
:10050000350186E20E9435018AE20E9435019FEFA3
:1005100023E284EF915020408040E1F700C00000CA
:100520000E94070145E551E062E081E00E945A0126
:100530009FEF23E284EF915020408040E1F700C01C
:1005400000000E94070145E651E062E081E00E9460
:100550005A0144E751E061E082E00E945A019FEFB6
:1005600023E284EF915020408040E1F700C000007A
:100570000E94070145E061E081E00E940B014EEA24
:1005800051E062E081E00E945A019FEF24E38CE099
:10059000915020408040E1F700C000006894EE24B4
:1005A000E1F8F12C36C08CE10E94A7009FEF24E314
:1005B0008CE0915020408040E1F700C000000150E5
:1005C000110989F79FEF21EE84E09150204080408F
:1005D000E1F700C0000008E010E088E10E94A700F9
:1005E0009FEF24E38CE0915020408040E1F700C071
:1005F00000000150110989F79FEF23ED80E391502E
:1006000020408040E1F700C0000091E0E91AF108C5
:1006100019F008E010E0C7CF0E94070145E851E05B
:1006200066E081E00E945A0147E068E082E00E94B3
:100630000B0146E069E082E00E940B012FEF8BE79F
:1006400092E9215080409040E1F700C000000E94F4
:10065000070180E1E6EBF1E0DE01D99601900D9211
:100660008A95E1F70E94070146E061E081E00E947F
:100670000B01AE01475C5F4F62E081E00E945A01CE
:100680006894EE24E1F8F12C21C001E010E040E292
:10069000602F81E00E940B010F5F1F4F0E151F0599
:1006A000B1F746E06E2D81E00E940B012FEF84E34D
:1006B0009CE0215080409040E1F700C000002FEF07
:1006C000E21AF20A81E1E816F10429F092E0E91653
:1006D000F104DCF6E6CF2FEF89E698E12150804067
:1006E0009040E1F700C000000E94070147E060E190
:1006F00082E00E940B01AE01475C5F4F61E082E047
:100700000E945A010F2EFFE0EF2EF12CF02D1EC09B
:1007100000E110E040E2602F82E00E940B010150F6
:1007200011090E151F05B1F747E06E2D82E00E94FA
:100730000B012FEF84E39CE0215080409040E1F7D3
:1007400000C0000021E0E21AF10829F080E1E8167B
:10075000F104F4F2E9CF9FEF29E688E191502040BF
:100760008040E1F700C000000E9407014DE851E021
:1007700061E081E00E945A019FEF2BE782E99150EE
:1007800020408040E1F700C000000E9407010F2ECA
:10079000F5E0EF2EF12CF02D61E081E00E94E80001
:1007A00004E010E081E00E94350182E00E94350102
:1007B00083E00E94350184E00E9435010150110957
:1007C00089F761E081E00E94E80004E010E082E047
:1007D0000E94350183E00E94350184E00E943501CA
:1007E00081E00E9435010150110989F761E081E043
:1007F0000E94E80004E010E083E00E94350184E0FC
:100800000E94350181E00E94350182E00E9435019D
:100810000150110989F761E081E00E94E80004E0DD
:1008200010E084E00E94350181E00E94350182E001
:100830000E94350183E00E9435010150110989F7BA
:1008400091E0E91AF10809F0A7CF2FEF83EC99E0C6
:10085000215080409040E1F700C000000E94070155
:100860004EE951E064E081E00E945A0148EA51E01B
:1008700062E082E00E945A0180E090E0C85BDF4FB6
:100880000FB6F894DEBF0FBECDBFDF91CF911F91A1
:0C0890000F91FF90EF900895F894FFCFB7
:10089C00030408100000000018040201000000000E
:1008AC0000000000100807000000000001021C00FE
:1008BC001F19151317101F000E1B1E1C1E1F0E00D8
:1008CC000E1B0F070F1F0E0053696E6520776176A4
:1008DC0065005370656369616C00436861726163A4
:1008EC0074657273004164646974696F6E616C2025
:1008FC0070617274005363726F6C6C696E672074F4
:10090C00657874007769746820437573746F6D2013
:10091C0043686172005041432D4D414E0052756E3B
:10092C006E696E672053696E6577617665005468F1
:10093C00616E6B20796F75005465616D20652D5962
:10094C00616E747261002D2D2D2D2D2D2D2D2D2DC3
:06095C002D2D2D2D2D00B4
:00000001FF
