S0190000325F492D4F20496E746572666163696E672E737265632B
S113000071C0000079C0000077C0000075C0000016
S113001073C0000071C000006FC000006DC000001C
S11300206BC0000069C0000067C0000065C000002C
S113003063C0000061C000005FC000005DC000003C
S11300405BC0000059C0000057C0000055C000004C
S113005053C0000051C000004FC000004DC000005C
S11300604BC0000049C0000047C0000045C000006C
S113007043C0000041C000003FC000003DC000007C
S11300803BC0000039C0000037C0000035C000008C
S113009033C0000031C000002FC000002DC000009C
S11300A02BC0000029C0000027C0000025C00000AC
S11300B023C0000021C000001FC000001DC00000BC
S11300C01BC0000019C0000017C0000015C00000CC
S11300D013C0000011C000000FC000000DC00000DC
S11300E00BC0000011241FBECFEFD1E2DEBFCDBF95
S11300F000E00CBF12D01FC083CF3B9A43980895F1
S11301006F98779A08958FEF8093040110920501F8
S11301100895439A089543980895EFDFF1DFF3DFDC
S1130120C5E0D1E01FEF679B03C01882F4DFFBCF6B
S10D01301883EFDFF8CFF894FFCF37
S9030000FC
