S0230000395F4144435F53656E736F725F446973706C61795F6F6E5F4C43442E7372656325
S1130000B2C00000CFC00000CDC00000CBC00000D3
S1130010C9C00000C7C00000C5C00000C3C00000C4
S1130020C1C00000BFC00000BDC00000BBC00000D4
S1130030B9C00000B7C00000B5C00000B3C00000E4
S1130040B1C00000AFC00000ADC00000ABC00000F4
S1130050A9C00000A7C00000A5C00000A3C0000004
S1130060A1C000009FC000009DC000009BC0000014
S113007099C0000097C0000095C0000093C0000024
S113008091C000008FC000008DC000008BC0000034
S113009089C0000087C0000085C0000083C0000044
S11300A081C000007FC000007DC000007BC0000054
S11300B079C0000077C0000075C0000073C0000064
S11300C071C000006FC000006DC000006BC0000074
S11300D069C0000067C0000065C0000063C0000084
S11300E061C0000007634236B79BD8A71A39685627
S11300F018AEBAAB558C1D3CB7CC5763BD6DEDFD46
S1130100753EF6177231BF000000803F0800000002
S1130110BE922449123EABAAAA2ABECDCCCC4C3EF8
S113012000000080BEABAAAAAA3E00000000BF00E7
S11301300000803F0000000000084178D3BB4387E3
S1130140D1133D190E3CC3BD4282AD2B3E68EC82F7
S113015076BED98FE1A93E4C80EFFFBE01C4FF7F7C
S11301603F000000000011241FBECFEFD1E2DEBF2C
S1130170CDBF00E00CBF12E0A0E0B2E0E6EFFDE08E
S113018000E00BBF02C007900D92A230B107D9F76F
S113019022E0A2E0B2E001C01D92AC31B207E1F767
S11301A081D027C62DCF10BA11BA10920701109230
S11301B008010895EAE7F0E0808186688083808101
S11301C086788083EBE7F0E08081807B8083ECE7B6
S11301D0F0E0808180768083808180648083808168
S11301E08062808380B7806880BF0895883028F05B
S11301F0EBE7F0E0908198609083ECE7F0E0908189
S11302008770892B8083EAE7F0E0808180648083B3
S1130210808184FFFDCF80917900EAE7F0E090814E
S113022090619083EBE7F0E09081977F9083ECE717
S1130230F0E09081907E90830895682F70E080E0D4
S113024090E04BD32FEE39EC43E95FE337D49B01C5
S1130250AC0160E070E080E89FE3A6D22AE939EFC0
S11302604EE255E4C8D320E030E040E251E4C3D389
S113027003D3CB016132734010F080E293E0089520
S1130280CF93DF93C82FD62F842FB0DF809308023B
S1130290482F50E023E030E06D2F8C2F40D1DF91C8
S11302A0CF91089580DF86DF52D0C6D080E09EDFF4
S11302B0682F70E080E090E010D3609303027093A5
S11302C00402809305029093060220E030E048EC9B
S11302D052E491D32DE335ED41EA5DE38CD323E37E
S11302E033E343E35FE3FCD16093090270930A02B2
S11302F080930B0290930C02BFD224E030E0AB0158
S113030061E081E00CD145E066E081E0B9DF46E0E0
S11303106AE081E0B5DF47E06EE081E0B1DF43E011
S113032062E082E0ADDF42E066E082E0A9DF41E026
S11303306AE082E0A5DF8AE059DF80930D027DDF69
S113034023E030E0AC016EE082E0E9D0AFCF87B1CA
S1130350876087B987B1806F87B988B1887F88B98A
S113036088B18F7088B9089586E69EE00197F1F709
S113037000004098419880E388B9429AEFEFF7E48F
S11303803197F1F700C000004298E6E6FEE03197AD
S1130390F1F700004098419888B9429AEFEFF7E4EA
S11303A03197F1F700C000004298E6E6FEE031978D
S11303B0F1F700004098419888B9429A8FEF97E48A
S11303C00197F1F700C000004298E6E6FEE031979D
S11303D0F1F700004098419880E288B9429A8FEF83
S11303E097E40197F1F700C000004298089598B18E
S11303F09F7098B998B1282F207F922B98B9409874
S11304004198429AEFEFF7E43197F1F700C000000A
S1130410429898B19F7098B998B18295807F892B42
S113042088B940984198429A8FEF97E40197F1F781
S113043000C000004298089597DF86E69EE0019789
S1130440F1F7000088E2D3DF81E0D1DF86E0CFDF7F
S11304508EE0CDDF80E8CBCF089580E8C8CF089543
S1130460823069F018F4813031F00895833059F006
S1130470843069F008958FE7860FB9CF08958FEB24
S1130480860FB5CF089583E9860FB1CF089583ED24
S1130490860FADCF0895CF93C42FE2DF88B18F705C
S11304A088B988B19C2F907F892B88B9409A41984C
S11304B0429A8FEF97E40197F1F700C00000429849
S11304C088B18F7088B988B1C295C07FC82BC8B96C
S11304D0409A4198429A8FEF97E40197F1F700C050
S11304E000004298CF9108950F931F93CF93DF9309
S11304F0D82FC62FFA014081442361F08F010F5F8A
S11305001F4F6C2F8D2FC7DFCF5FF80141918F01F3
S11305104111F7CFDF91CF911F910F910895EF9281
S1130520FF920F931F93CF93DF93D82FC62F7A0197
S1130530890196DFFF204CF4F194E194F10840E046
S113054052E06C2F8D2FD0DFCF5FDD2311F0C1116E
S113055002C083DF03C06C2F8D2F82DF05301105AD
S113056009F0ADC0C70160E177E20DD4AB01405D95
S11305705F4F50931102409310026C2F8D2F8BDF2D
S1130580CF5FC70168EE73E0FED3AB017093130233
S1130590609312029B01ADECBCEC08D49695879550
S11305A096958795969587959C01220F331F880F02
S11305B0991F880F991F880F991F820F931F481B3B
S11305C0590B405D5F4F50931B0240931A026C2FEE
S11305D08D2F61DFCF5F03C00330110559F5C701CB
S11305E064E670E0D0D3AB017093130260931202FF
S11305F09B01ADECBCECDAD39695879596958795DF
S1130600969587959C01220F331F880F991F880F99
S1130610991F880F991F820F931F481B590B405D28
S11306205F4F50931702409316026C2F8D2F33DFC8
S1130630CF5F04C00230110509F046C0C7016AE06B
S113064070E0A1D3AB0170931302609312029B017B
S1130650ADECBCECABD3969587959695879596951E
S113066087959C01220F331F880F991F880F991FAC
S1130670880F991F820F931F481B590B405D5F4FD2
S113068050931502409314026C2F8D2F04DFCF5F1B
S1130690C7016AE070E077D3AC01405D5F4F5093CF
S11306A01902409318026C2F8D2FF5DECF5F0630B0
S11306B0110574F045E46C2F8D2FEDDE09C0043074
S11306C0110509F089CF5DCF0130110581F7E0CF25
S11306D0DF91CF911F910F91FF90EF9008955058A3
S11306E0BB27AA270ED04DC13ED130F043D120F014
S11306F031F49F3F11F41EF433C10EF4E095E7FB8F
S113070029C1E92F4FD180F3BA1762077307840711
S1130710950718F071F49EF567C10EF4E0950B2E61
S1130720BA2FA02D0B01B90190010C01CA01A0013F
S11307301124FF27591B99F0593F50F4503E68F19A
S11307401A16F040A22F232F342F4427585FF3CFDB
S1130750469537952795A795F0405395C9F77EF4AC
S11307601F16BA0B620B730B840BBAF09150A1F0F5
S1130770FF0FBB1F661F771F881FC2F70EC0BA0F7B
S1130780621F731F841F48F4879577956795B79503
S1130790F7959E3F08F0B3CF9395880F08F09927FB
S11307A0EE0F9795879508950CD0EBC0E3D040F0F9
S11307B0DAD030F021F45F3F19F0CCC0511115C1EB
S11307C0CFC0F0D098F39923C9F35523B1F3951B07
S11307D0550BBB27AA2762177307840738F09F5F5E
S11307E05F4F220F331F441FAA1FA9F333D00E2ECD
S11307F03AF0E0E830D091505040E695001CCAF73A
S113080029D0FE2F27D0660F771F881FBB1F2617FE
S113081037074807AB07B0E809F0BB0B802DBF01D1
S1130820FF2793585F4F2AF09E3F510568F092C00E
S1130830DCC05F3FECF3983EDCF3869577956795D3
S1130840B795F7959F5FC9F7880F911D9695879582
S113085097F90895E1E0660F771F881FBB1F6217A1
S113086073078407BA0720F0621B730B840BBA0B5F
S1130870EE1F88F7E095089504D06894B111B5C0CF
S1130880089598D088F09F5790F0B92F9927B751C1
S1130890A0F0D1F0660F771F881F991F1AF0BA9540
S11308A0C9F712C0B13081F09FD0B1E008959CC067
S11308B0672F782F8827B85F39F0B93FCCF3869536
S11308C077956795B395D9F73EF490958095709593
S11308D061957F4F8F4F9F4F0895E89409C097FB10
S11308E03EF490958095709561957F4F8F4F9F4F03
S11308F09923A9F0F92F96E9BB279395F695879547
S113090077956795B795F111F8CFFAF4BB0F11F409
S113091060FF1BC06F5F7F4F8F4F9F4F16C08823B0
S113092011F096E911C0772321F09EE8872F762FE6
S113093005C0662371F096E8862F70E060E02AF027
S11309409A95660F771F881FDAF7880F9695879513
S113095097F9089597F99F6780E870E060E008953B
S11309609FEF80EC089500240A94161617061806C3
S11309700906089500240A9412161306140605069F
S11309800895092E0394000C11F4882352F0BB0F30
S113099040F4BF2B11F460FF04C06F5F7F4F8F4F93
S11309A09F4F089557FD9058440F551F59F05F3FCE
S11309B071F04795880F97FB991F61F09F3F79F07D
S11309C087950895121613061406551FF2CF4695FF
S11309D0F1DF08C0161617061806991FF1CF869581
S11309E07105610508940895E894BB276627772765
S11309F0CB0197F908950BD0C4CFB5DF28F0BADF47
S1130A0018F0952309F0A6CFABCF1124EECFCADF9F
S1130A10A0F3959FD1F3950F50E0551F629FF0010D
S1130A20729FBB27F00DB11D639FAA27F00DB11D66
S1130A30AA1F649F6627B00DA11D661F829F2227EF
S1130A40B00DA11D621F739FB00DA11D621F839F76
S1130A50A00D611D221F749F3327A00D611D231F4C
S1130A60849F600D211D822F762F6A2F11249F579A
S1130A7050408AF0E1F088234AF0EE0FFF1FBB1FBD
S1130A80661F771F881F91505040A9F79E3F51055C
S1130A9070F060CFAACF5F3FECF3983EDCF386950D
S1130AA077956795B795F795E7959F5FC1F7FE2B07
S1130AB0880F911D9695879597F90895FA01EE0F81
S1130AC0FF1F30962105310599F16115710561F417
S1130AD08038BFE39B0749F168949038810561F041
S1130AE08038BFEF9B0741F0992342F5FF3FE105B2
S1130AF03105210511F1E8940894E795D901AA2359
S1130B0029F4AB2FBE2FF85FD0F310C0FF5F70F451
S1130B10A695E0F7F73950F019F0FF3A38F49F77CB
S1130B209F930CD00F9007FC905808953EF018CF77
S1130B3060E070E080E89FE308954FE79F775F935C
S1130B404F933F932F939ED02F913F914F915F915D
S1130B5052DF05C019F40EF0FDCE46CF01CF2ADFD7
S1130B60C8F39638C0F707F80F92E8942BE33AEAF3
S1130B7048EB5FE74EDF0F920F920F924DB75EB7CF
S1130B800F92C0D0E4EEF0E016D04F915F91EF9158
S1130B90FF91E595EE1FFF1F49F0FE57E0684427DB
S1130BA0EE0F441FFA95E1F74195550B32D00F90A3
S1130BB007FE26C00895DF93CF931F930F93FF92F0
S1130BC0EF92DF927B018C01689405C0DA2EEF016D
S1130BD01EDFFE01E894A59125913591459155912B
S1130BE0AEF3EF018EDDFE019701A801DA9479F7E7
S1130BF0DF90EF90FF900F911F91CF91DF910895B7
S1130C009B01AC0160E070E080E89FE3CDCDA2CE13
S1130C10ACC0D0DEE8F39923D9F3940F511DBBF394
S1130C209150504094F059F0882332F0660F771FAA
S1130C30881F91505040C1F79E3F510544F7880FDB
S1130C40911D9695879597F908955F3FACF0983E6E
S1130C509CF0BB27869577956795B79508F4B160A6
S1130C609395C1F7BB0F58F711F460FFE8CF6F5F9E
S1130C707F4F8F4F9F4FE3CFB8CE0EF076C070CE2C
S1130C80689468CE97DEC8F39923D1F3C6F3DF9353
S1130C90CF931F930F93FF92C92FDD2788232AF048
S1130CA02197660F771F881FDAF720E030E040E8CD
S1130CB05FEB9FE3883920F0803E30F021968F77F8
S1130CC00FDDECE0F1E003C00BDDE9E3F1E073DFFD
S1130CD08B01BE01EC01FB2E6F5771097595771FCF
S1130CE0880B990BFCDD28E132E741E35FE38FDEFB
S1130CF0AF2D9801AE01FF900F911F91CF91DF911D
S1130D0000DD3FCEFA01DC01AA0FBB1F9B01AC0141
S1130D10BF5728F422273327442750781FC0B751E0
S1130D2088F4AB2F0024469537952795011CA3958D
S1130D30D2F3002069F0220F331F441FB395DAF376
S1130D400DD0CDCC61307105A0E88A07B94630F4E6
S1130D509B01AC016627772788279078309621F08D
S1130D60208331834283538308959F3F31F0915010
S1130D7020F4879577956795B795880F911D96957B
S1130D80879597F9089597FB072E16F4009406D0DB
S1130D9077FD08D01AD007FC05D03EF490958195D4
S1130DA09F4F0895709561957F4F0895A29FB0015C
S1130DB0B39FC001A39F700D811D1124911DB29F8B
S1130DC0700D811D1124911D0895AA1BBB1B51E1B7
S1130DD007C0AA1FBB1FA617B70710F0A61BB70BA7
S1130DE0881F991F5A95A9F780959095BC01CD014C
S1090DF00895F894FFCF02
S1050DF62D00CA
S9030000FC
