:1000000071C000008EC000008CC000008AC00000DB
:1000100088C0000086C0000084C0000082C00000CC
:1000200080C000007EC000007CC000007AC00000DC
:1000300078C0000076C0000074C0000072C00000EC
:1000400070C000006EC000006CC000006AC00000FC
:1000500068C0000066C0000064C0000062C000000C
:1000600060C000005EC000005CC000005AC000001C
:1000700058C0000056C0000054C0000052C000002C
:1000800050C000004EC000004CC000004AC000003C
:1000900048C0000046C0000044C0000042C000004C
:1000A00040C000003EC000003CC000003AC000005C
:1000B00038C0000036C0000034C0000032C000006C
:1000C00030C000002EC000002CC000002AC000007C
:1000D00028C0000026C0000024C0000022C000008C
:1000E00020C0000011241FBECFEFD1E2DEBFCDBF84
:1000F00000E00CBF12E0A0E0B2E0EAE3F4E000E0D0
:100100000BBF02C007900D92A233B107D9F722E0CE
:10011000A2E3B2E001C01D92A233B207E1F785D09D
:100120008AC16ECF9F92AF92BF92CF92DF92EF9231
:10013000FF920F931F93CF93DF93CDB7DEB7A097B6
:100140000FB6F894DEBF0FBECDBF20E2E0E0F2E0D4
:10015000CE010196DC0101900D922A95E1F7FC0198
:1001600001900020E9F731975F01A81AB90A7C01D4
:100170009924939400E010E0670133C00A151B0531
:100180007CF4F7014081692D81E011D1FFEF2FE36D
:100190008BE0F15020408040E1F700C000000DC02E
:1001A00040E2692D81E003D19FEFEFE3FBE0915046
:1001B000E040F040E1F700C00000003111055CF0C4
:1001C00088E19ED02FEF8FE39BE02150804090404C
:1001D000E1F700C000000F5F1F4FEFEFEE1AFE0ABD
:1001E0009394F60101900020E9F7CF018C199D0945
:1001F0000F960817190708F4C1CFA0960FB6F89408
:10020000DEBF0FBECDBFDF91CF911F910F91FF9049
:10021000EF90DF90CF90BF90AF909F90089540E215
:1002200052E061E082E0ECC008951AD08ED0BCD0DC
:100230009DD0F5DF2FEF8FEF99E521508040904062
:10024000E1F700C00000B0D091D06CDF2FEF8FEF4E
:1002500099E5215080409040E1F700C00000E7CFD1
:1002600087B1876087B987B1806F87B988B1887F88
:1002700088B988B18F7088B9089586E69EE00197A5
:10028000F1F700004098419880E388B9429AEFEF77
:10029000F7E43197F1F700C000004298E6E6FEE08F
:1002A0003197F1F700004098419888B9429AEFEFF2
:1002B000F7E43197F1F700C000004298E6E6FEE06F
:1002C0003197F1F700004098419888B9429A8FEF32
:1002D00097E40197F1F700C000004298E6E6FEE0DF
:1002E0003197F1F700004098419880E288B9429A2E
:1002F0008FEF97E40197F1F700C00000429808954E
:1003000098B19F7098B998B1282F207F922B98B9F7
:1003100040984198429AEFEFF7E43197F1F700C027
:100320000000429898B19F7098B998B18295807FEB
:10033000892B88B940984198429A8FEF97E40197AA
:10034000F1F700C000004298089597DF86E69EE02E
:100350000197F1F7000088E2D3DF81E0D1DF86E08A
:10036000CFDF8EE0CDDF80E8CBCF089580E8C8CF27
:100370000895823069F018F4813031F008958330A7
:1003800059F0843069F008958FE7860FB9CF08954A
:100390008FEB860FB5CF089583E9860FB1CF08950F
:1003A00083ED860FADCF089581E0AACF0895CF9356
:1003B000C42FDFDF88B18F7088B988B19C2F907F00
:1003C000892B88B9409A4198429A8FEF97E4019718
:1003D000F1F700C00000429888B18F7088B988B1E9
:1003E000C295C07FC82BC8B9409A4198429A8FEFF6
:1003F00097E40197F1F700C000004298CF9108956B
:100400000F931F93CF93DF93D82FC62FFA0140810C
:10041000442361F08F010F5F1F4F6C2F8D2FC7DFBB
:10042000CF5FF80141918F014111F7CFDF91CF915B
:0A0430001F910F910895F894FFCF7B
:10043A00437261736820436F75727365202D20457E
:10044A006D6265646465642053797374656D7300C5
:10045A00652D59616E7472612041636164656D79BD
:02046A00000090
:00000001FF
