S0250000355F506F736974696F6E5F436F6E74726F6C5F496E74657272757074732E7372656337
S113000071C0000082C0000080C000007EC00000FB
S11300107CC000001CC10000ECC0000076C00000E1
S113002074C0000072C0000070C000006EC0000008
S11300306CC000006AC0000068C0000066C0000018
S113004064C0000062C0000060C000005EC0000028
S11300505CC000005AC0000058C0000056C0000038
S113006054C0000052C0000050C000004EC0000048
S11300704CC000004AC0000048C0000046C0000058
S113008044C0000042C0000040C000003EC0000068
S11300903CC000003AC0000038C0000036C0000078
S11300A034C0000032C0000030C000002EC0000088
S11300B02CC000002AC0000028C0000026C0000098
S11300C024C0000022C0000020C000001EC00000A8
S11300D01CC000001AC0000018C0000016C00000B8
S11300E014C0000011241FBECFEFD1E2DEBFCDBF8C
S11300F000E00CBF22E0A0E0B2E001C01D92A830F5
S1130100B207E1F746D30C945F0A7ACFCF93DF931B
S1130110CDB7DEB781E290E021E230E0F901208141
S11301202F60FC01208382E290E022E230E0F901BA
S11301302081207FFC0120830000DF91CF9108956E
S1130140CF93DF93CDB7DEB78AE091E02AE031E0C8
S1130150F90120812861FC0120838BE091E02BE0F0
S113016031E0F90120812861FC0120830000DF9146
S1130170CF910895CF93DF93CDB7DEB78DE290E0B2
S11301802DE230E0F90120812F7CFC0120838EE2F6
S113019090E02EE230E0F90120812063FC0120830D
S11301A00000DF91CF910895CF93DF93CDB7DEB7F1
S11301B0F8948DE390E02DE330E0F9012081206391
S11301C0FC0120838AE690E02AE630E0F9012081F0
S11301D02A60FC0120838AE690E02AE630E0F901F7
S11301E020812A7FFC01208378940000DF91CF9145
S11301F008951F920F9200905F000F9211248F9325
S11302009F93AF93BF93CF93DF93CDB7DEB7809126
S1130210040290910502A0910602B0910702019692
S1130220A11DB11D8093040290930502A0930602C0
S1130230B09307020000DF91CF91BF91AF919F91DE
S11302408F910F9000925F000F901F9018951F924E
S11302500F9200905F000F9211248F939F93AF939E
S1130260BF93CF93DF93CDB7DEB780910002909117
S11302700102A0910202B09103020196A11DB11DD9
S11302808093000290930102A0930202B0930302B0
S11302900000DF91CF91BF91AF919F918F910F900B
S11302A000925F000F901F901895CF93DF93CDB706
S11302B0DEB782E290E022E230E0F9012081267F7D
S11302C0FC01208382E290E022E230E0F901208107
S11302D02660FC0120830000DF91CF910895CF9325
S11302E0DF93CDB7DEB782E290E022E230E0F9019D
S11302F02081297FFC01208382E290E022E230E029
S1130300F90120812960FC0120830000DF91CF9155
S11303100895CF93DF93CDB7DEB782E290E022E277
S113032030E0F9012081257FFC01208382E290E006
S113033022E230E0F90120812560FC0120830000E5
S1130340DF91CF910895CF93DF93CDB7DEB782E2EB
S113035090E022E230E0F90120812A7FFC01208331
S113036082E290E022E230E0F90120812A60FC017F
S113037020830000DF91CF910895CF93DF93CDB711
S1130380DEB782E290E022E230E0F9012081287FAA
S1130390FC01208382E290E022E230E0F901208136
S11303A02460FC0120830000DF91CF910895CF9356
S11303B0DF93CDB7DEB782E290E022E230E0F901CC
S11303C02081227FFC01208382E290E022E230E05F
S11303D0F90120812260FC0120830000DF91CF918C
S11303E00895CF93DF93CDB7DEB782E290E022E2A7
S11303F030E0F9012081217FFC01208382E290E03A
S113040022E230E0F90120812160FC012083000018
S1130410DF91CF910895CF93DF93CDB7DEB782E21A
S113042090E022E230E0F9012081287FFC01208362
S113043082E290E022E230E0F90120812860FC01B0
S113044020830000DF91CF910895CF93DF93CDB740
S1130450DEB782E290E022E230E0F9012081207FE1
S1130460FC0120830000DF91CF910895CF93DF93A7
S1130470CDB7DEB72A970FB6F894DEBF0FBECDBF57
S11304809A87898719821A821B821C821D821E8286
S11304901F82188689859A85CC01A0E0B0E0BC0152
S11304A0CD01F4D6DC01CB0128E431EE42E850E47E
S11304B0BC01CD0157D6DC01CB0189839A83AB8380
S11304C0BC8369817A818B819C81B4D6DC01CB01A8
S11304D0CC01A0E0B0E08D839E83AF83B8871092F7
S11304E00402109205021092060210920702109262
S11304F00002109201021092020210920302209153
S113050004023091050240910602509107028D8148
S11305109E81AF81B885281739074A075B0790F495
S11305202091000230910102409102025091030295
S11305308D819E81AF81B885281739074A075B07EB
S113054008F4DDCF82DF00002A960FB6F894DEBFF0
S11305500FBECDBFDF91CF910895CF93DF93CDB779
S1130560DEB72A970FB6F894DEBF0FBECDBF9A87C9
S1130570898719821A821B821C821D821E821F8215
S1130580188689859A85CC01A0E0B0E0BC01CD0134
S11305907DD6DC01CB0125EE30ED4AEA50E4BC0106
S11305A0CD01E0D5DC01CB0189839A83AB83BC8385
S11305B069817A818B819C813DD6DC01CB018D835D
S11305C09E83AF83B88710920402109205021092A2
S11305D00602109207021092000210920102109279
S11305E0020210920302209104023091050240910C
S11305F00602509107028D819E81AF81B88528172C
S113060039074A075B0790F42091000230910102F8
S113061040910202509103028D819E81AF81B88581
S1130620281739074A075B0708F4DDCF0EDF0000FF
S11306302A960FB6F894DEBF0FBECDBFDF91CF91DF
S11306400895CF93DF931F921F92CDB7DEB79A839D
S113065089832BDE89819A8180DF00000F900F90BF
S1130660DF91CF910895CF93DF931F921F92CDB75F
S1130670DEB79A83898333DE89819A816EDF000035
S11306800F900F90DF91CF910895CF93DF931F9236
S11306901F92CDB7DEB79A8389833BDE89819A8125
S11306A0E5DE00000F900F90DF91CF910895CF9376
S11306B0DF931F921F92CDB7DEB79A83898343DEFF
S11306C089819A81D3DE00000F900F90DF91CF9142
S11306D00895CF93DF931F921F92CDB7DEB79A830D
S11306E089834BDE89819A81880F991F9A83898334
S11306F089819A81BBDE00000F900F90DF91CF912A
S11307000895CF93DF931F921F92CDB7DEB79A83DC
S113071089834DDE89819A81880F991F9A83898301
S113072089819A81A3DE00000F900F90DF91CF9111
S11307300895CF93DF931F921F92CDB7DEB79A83AC
S113074089834FDE89819A81880F991F9A838983CF
S113075089819A818BDE00000F900F90DF91CF91F9
S11307600895CF93DF931F921F92CDB7DEB79A837C
S1130770898351DE89819A81880F991F9A8389839D
S113078089819A8173DE00000F900F90DF91CF91E1
S113079008950F931F93CF93DF93CDB7DEB7C05760
S11307A0D1090FB6F894DEBF0FBECDBFAFDCC8DCF5
S11307B0E1DCFADC84E690E044DF80E090E0AAEF3C
S11307C0B3E489839A83AB83BC838E0109591F4F99
S11307D026E636E646E655E469817A818B819C817A
S11307E00BD6DC01CB01F80180839183A283B38310
S11307F0CE0189599F4F20E030E040E85FE3FC01DF
S11308006081718182819381A9D488234CF4CE01C3
S113081085599F4F21E030E0FC013183208365C07E
S1130820CE0189599F4F20E03FEF4FE757E4FC0189
S11308306081718182819381DBD518160CF044C0EC
S113084020E030E040E251E469817A818B819C812F
S1130850D3D5DC01CB018E0105591F4FBC01CD015D
S1130860E9D4DC01CB01F8019183808324C0CE015B
S113087083599F4F20E731E0FC0131832083CE016F
S113088083599F4FFC01808191810197F1F79E016B
S113089023593F4FF90191838083CE0185599F4F9E
S11308A09E0125593F4FF9012081318121503109A1
S11308B0FC0131832083CE0185599F4FFC01808147
S11308C09181892BA1F62BC08E0105591F4FCE01B2
S11308D089599F4FFC016081718182819381AAD4DF
S11308E0DC01CB01F80191838083CE0181599F4FB4
S11308F09E0125593F4FF90120813181FC0131834B
S11309002083CE0181599F4FFC0180819181019701
S1130910F1F79E0121593F4FF9019183808384E6C9
S113092090E0A1DE80E090E0AAEFB3E48D839E83A3
S1130930AF83B8878E01035A1F4F26E636E646E694
S113094055E46D817E818F81988556D5DC01CB017C
S1130950F80180839183A283B383CE01835A9F4F8E
S113096020E030E040E85FE3FC0160817181828136
S11309709381F4D388234CF4CE018F599F4F21E007
S113098030E0FC013183208365C0CE01835A9F4F40
S113099020E03FEF4FE757E4FC01608171818281E1
S11309A0938126D518160CF044C020E030E040E2D4
S11309B051E46D817E818F8198851ED5DC01CB0148
S11309C08E010F591F4FBC01CD0134D4DC01CB0182
S11309D0F8019183808324C0CE018D599F4F20E775
S11309E031E0FC0131832083CE018D599F4FFC01FE
S11309F0808191810197F1F79E012D593F4FF901B3
S1130A0091838083CE018F599F4F9E012F593F4F71
S1130A10F9012081318121503109FC013183208386
S1130A20CE018F599F4FFC0180819181892BA1F6C2
S1130A302BC08E010F591F4FCE01835A9F4FFC01CB
S1130A406081718182819381F5D3DC01CB01F8014E
S1130A5091838083CE018B599F4F9E012F593F4F25
S1130A60F90120813181FC0131832083CE018B592E
S1130A709F4FFC01808191810197F1F79E012B59D1
S1130A803F4FF901918380838AE590E0FEDD80E0A9
S1130A9090E0AAEFB3E489879A87AB87BC878E017D
S1130AA00D5A1F4F26E636E646E655E469857A85F3
S1130AB08B859C85A1D4DC01CB01F80180839183D3
S1130AC0A283B383CE018D5A9F4F20E030E040E8EB
S1130AD05FE3FC0160817181828193813FD388232C
S1130AE04CF4CE01895A9F4F21E030E0FC01318360
S1130AF0208365C0CE018D5A9F4F20E03FEF4FE722
S1130B0057E4FC01608171818281938171D418164C
S1130B100CF044C020E030E040E251E469857A857D
S1130B208B859C8569D4DC01CB018E01095A1F4F4A
S1130B30BC01CD017FD3DC01CB01F801918380831B
S1130B4024C0CE01875A9F4F20E731E0FC01318356
S1130B502083CE01875A9F4FFC01808191810197A8
S1130B60F1F79E01275A3F4FF90191838083CE010B
S1130B70895A9F4F9E01295A3F4FF90120813181A3
S1130B8021503109FC0131832083CE01895A9F4FC2
S1130B90FC0180819181892BA1F62BC08E01095A19
S1130BA01F4FCE018D5A9F4FFC016081718182815C
S1130BB0938140D3DC01CB01F80191838083CE0182
S1130BC0855A9F4F9E01295A3F4FF9012081318157
S1130BD0FC0131832083CE01855A9F4FFC01808123
S1130BE091810197F1F79E01255A3F4FF9019183B5
S1130BF080838AE590E05BDD80E090E0AAEFB3E4D7
S1130C008D879E87AF87B88B8E01075B1F4F26E6C3
S1130C1036E646E655E46D857E858F859889ECD366
S1130C20DC01CB01F80180839183A283B383CE01DD
S1130C30875B9F4F20E030E040E85FE3FC01608188
S1130C407181828193818AD288234CF4CE01835BA3
S1130C509F4F21E030E0FC013183208365C0CE0149
S1130C60875B9F4F20E03FEF4FE757E4FC01608133
S1130C70718182819381BCD318160CF044C020E0AA
S1130C8030E040E251E46D857E858F859889B4D348
S1130C90DC01CB018E01035B1F4FBC01CD01CAD225
S1130CA0DC01CB01F8019183808324C0CE01815BF8
S1130CB09F4F20E731E0FC0131832083CE01815B2B
S1130CC09F4FFC01808191810197F1F79E01215B87
S1130CD03F4FF90191838083CE01835B9F4F9E0137
S1130CE0235B3F4FF9012081318121503109FC01FF
S1130CF031832083CE01835B9F4FFC0180819181EE
S1130D00892BA1F62BC08E01035B1F4FCE01875B9D
S1130D109F4FFC0160817181828193818BD2DC01C0
S1130D20CB01F80191838083CE018F5A9F4F9E019E
S1130D30235B3F4FF90120813181FC013183208302
S1130D40CE018F5A9F4FFC01808191810197F1F769
S1130D509E012F5A3F4FF901918380838AE590E0E9
S1130D60B8DC80E090E0AAEFB3E4898B9A8BAB8B7C
S1130D70BC8B8E01015C1F4F26E636E646E655E441
S1130D8069897A898B899C8937D3DC01CB01F80185
S1130D9080839183A283B383CE01CF9620E030E099
S1130DA040E85FE3FC016081718182819381D6D147
S1130DB088234CF4CE018D5B9F4F21E030E0FC0191
S1130DC03183208363C0CE01CF9620E03FEF4FE70D
S1130DD057E4FC01608171818281938109D31816E3
S1130DE00CF044C020E030E040E251E469897A89A3
S1130DF08B899C8901D3DC01CB018E010D5B1F4FD4
S1130E00BC01CD0117D2DC01CB01F80191838083B1
S1130E1024C0CE018B5B9F4F20E731E0FC0131837E
S1130E202083CE018B5B9F4FFC01808191810197D0
S1130E30F1F79E012B5B3F4FF90191838083CE0133
S1130E408D5B9F4F9E012D5B3F4FF90120813181C6
S1130E5021503109FC0131832083CE018D5B9F4FEA
S1130E60FC0180819181892BA1F62AC08E010D5B42
S1130E701F4FCE01CF96FC016081718182819381E5
S1130E80D9D1DC01CB01F80191838083CE01895B48
S1130E909F4F9E012D5B3F4FF90120813181FC0161
S1130EA031832083CE01895B9F4FFC018081918136
S1130EB00197F1F79E01295B3F4FF90191838083EC
S1130EC08AE590E01EDC80E090E0AAEFB3E48D8B2D
S1130ED09E8BAF8BB88F26E636E646E655E46D89E1
S1130EE07E898F89988D88D2DC01CB018DAB9EAB36
S1130EF0AFABB8AF20E030E040E85FE36DA97EA976
S1130F008FA998AD2BD188232CF481E090E09AAF7F
S1130F1089AF3BC020E03FEF4FE757E46DA97EA9BE
S1130F208FA998AD65D218163CF520E030E040E278
S1130F3051E46D897E898F89988D5ED2DC01CB0165
S1130F40BC01CD0177D1DC01CB019AAF89AF0FC0D1
S1130F5080E791E09CAF8BAF8BAD9CAD0197F1F72F
S1130F609CAF8BAF89AD9AAD01979AAF89AF89AD2C
S1130F709AAD892B69F713C06DA97EA98FA998AD85
S1130F8059D1DC01CB019AAF89AF89AD9AAD9EAF3F
S1130F908DAF8DAD9EAD0197F1F79EAF8DAF8AE514
S1130FA090E0C7DB80E090E0AAEFB3E4898F9A8FEA
S1130FB0AB8FBC8F26E636E646E655E4698D7A8D1E
S1130FC08B8D9C8D19D2DC01CB018BA79CA7ADA77F
S1130FD0BEA720E030E040E85FE36BA57CA58DA5CB
S1130FE09EA5BCD088232CF481E090E098AB8FA719
S1130FF03BC020E03FEF4FE757E46BA57CA58DA5F0
S11310009EA5F6D118163CF520E030E040E251E40C
S1131010698D7A8D8B8D9C8DEFD1DC01CB01BC0168
S1131020CD0108D1DC01CB0198AB8FA70FC080E7BD
S113103091E09AAB89AB89A99AA90197F1F79AAB88
S113104089AB8FA598A9019798AB8FA78FA598A96D
S1131050892B69F713C06BA57CA58DA59EA5EAD045
S1131060DC01CB0198AB8FA78FA598A99CAB8BAB68
S11310708BA99CA90197F1F79CAB8BAB8AE590E017
S113108070DB80E090E0AAEFB3E48D8F9E8FAF8F8A
S1131090B8A326E636E646E655E46D8D7E8D8F8D43
S11310A098A1AAD1DC01CB0189A39AA3ABA3BCA3C9
S11310B020E030E040E85FE369A17AA18BA19CA124
S11310C04DD088232CF481E090E09EA38DA33BC0F7
S11310D020E03FEF4FE757E469A17AA18BA19CA1DF
S11310E087D118163CF520E030E040E251E46D8DE4
S11310F07E8D8F8D98A180D1DC01CB01BC01CD0107
S113110099D0DC01CB019EA38DA30FC080E791E0B1
S113111098A78FA38FA198A50197F1F798A78FA3FC
S11311208DA19EA101979EA38DA38DA19EA1892B24
S113113069F713C069A17AA18BA19CA17BD0DC01C2
S1131140CB019EA38DA38DA19EA19AA789A789A552
S11311509AA50197F1F79AA789A72CCBD4D008F4C4
S113116081E008950CD00AC102D140F0F9D030F0EA
S113117021F45F3F19F0EBC0511134C1EEC00FD11F
S113118098F39923C9F35523B1F3951B550BBB274A
S1131190AA2762177307840738F09F5F5F4F220FF7
S11311A0331F441FAA1FA9F333D00E2E3AF0E0E8F0
S11311B030D091505040E695001CCAF729D0FE2F3C
S11311C027D0660F771F881FBB1F261737074807CE
S11311D0AB07B0E809F0BB0B802DBF01FF27935884
S11311E05F4F2AF09E3F510568F0B1C0FBC05F3FDE
S11311F0ECF3983EDCF3869577956795B795F7956C
S11312009F5FC9F7880F911D9695879597F9089563
S1131210E1E0660F771F881FBB1F621773078407FF
S1131220BA0720F0621B730B840BBA0BEE1F88F70E
S1131230E0950895BCD088F09F5790F0B92F992776
S1131240B751A0F0D1F0660F771F881F991F1AF0CD
S1131250BA95C9F712C0B13081F0C3D0B1E0089596
S1131260C0C0672F782F8827B85F39F0B93FCCF317
S1131270869577956795B395D9F73EF490958095C3
S1131280709561957F4F8F4F9F4F0895E89409C0E3
S113129097FB3EF490958095709561957F4F8F4FA5
S11312A09F4F9923A9F0F92F96E9BB279395F695BB
S11312B0879577956795B795F111F8CFFAF4BB0F39
S11312C011F460FF1BC06F5F7F4F8F4F9F4F16C09D
S11312D0882311F096E911C0772321F09EE8872F27
S11312E0762F05C0662371F096E8862F70E060E0E3
S11312F02AF09A95660F771F881FDAF7880F96955C
S1131300879597F90895990F0008550FAA0BE0E8FF
S1131310FEEF16161706E807F907C0F012161306B3
S1131320E407F50798F0621B730B840B950B39F4F3
S11313300A2661F0232B242B252B21F408950A2659
S113134009F4A140A6958FEF811D811D089597F999
S11313509F6780E870E060E008959FEF80EC089557
S113136000240A9416161706180609060895002480
S11313700A9412161306140605060895092E0394FA
S1131380000C11F4882352F0BB0F40F4BF2B11F46E
S113139060FF04C06F5F7F4F8F4F9F4F089557FDCD
S11313A09058440F551F59F05F3F71F04795880FCF
S11313B097FB991F61F09F3F79F087950895121666
S11313C013061406551FF2CF4695F1DF08C0161612
S11313D017061806991FF1CF8695710561050894C3
S11313E00895E894BB2766277727CB0197F90895DA
S11313F08ADF08F48FEF08950BD0C0CFB1DF28F057
S1131400B6DF18F0952309F0A2CFA7CF1124EACFB5
S1131410C6DFA0F3959FD1F3950F50E0551F629F4F
S1131420F001729FBB27F00DB11D639FAA27F00D39
S1131430B11DAA1F649F6627B00DA11D661F829F60
S11314402227B00DA11D621F739FB00DA11D621F45
S1131450839FA00D611D221F749F3327A00D611D62
S1131460231F849F600D211D822F762F6A2F112444
S11314709F5750408AF0E1F088234AF0EE0FFF1F97
S1131480BB1F661F771F881F91505040A9F79E3FCE
S1131490510570F05CCFA6CF5F3FECF3983EDCF3D0
S11314A0869577956795B795F795E7959F5FC1F70B
S11314B0FE2B880F911D9695879597F90895F894BA
S10514C0FFCF58
S9030000FC
