:1000000071C000008EC000008CC000008AC00000DB
:1000100088C0000086C0000084C0000082C00000CC
:1000200080C000007EC000007CC000007AC00000DC
:1000300078C0000076C0000074C0000072C00000EC
:1000400070C000006EC000006CC000006AC00000FC
:1000500068C0000066C0000064C0000062C000000C
:1000600060C000005EC000005CC000005AC000001C
:1000700058C0000056C0000054C0000052C000002C
:1000800050C000004EC000004CC000004AC000003C
:1000900048C0000046C0000044C0000042C000004C
:1000A00040C000003EC000003CC000003AC000005C
:1000B00038C0000036C0000034C0000032C000006C
:1000C00030C000002EC000002CC000002AC000007C
:1000D00028C0000026C0000024C0000022C000008C
:1000E00020C0000011241FBECFEFD1E2DEBFCDBF84
:1000F00000E00CBF12E0A0E0B2E0ECE0F3E000E0D2
:100100000BBF02C007900D92A631B107D9F722E0CC
:10011000A6E1B2E001C01D92A631B207E1F702D01C
:10012000F3C06ECF0CD080D040E052E065E081E0BB
:10013000D0D049E052E064E082E0CBD0F5CF87B187
:10014000876087B987B1806F87B988B1887F88B9A0
:1001500088B18F7088B9089586E69EE00197F1F71F
:1001600000004098419880E388B9429AEFEFF7E4A5
:100170003197F1F700C000004298E6E6FEE03197C3
:10018000F1F700004098419888B9429AEFEFF7E400
:100190003197F1F700C000004298E6E6FEE03197A3
:1001A000F1F700004098419888B9429A8FEF97E4A0
:1001B0000197F1F700C000004298E6E6FEE03197B3
:1001C000F1F700004098419880E288B9429A8FEF99
:1001D00097E40197F1F700C000004298089598B1A4
:1001E0009F7098B998B1282F207F922B98B940988A
:1001F0004198429AEFEFF7E43197F1F700C0000021
:10020000429898B19F7098B998B18295807F892B58
:1002100088B940984198429A8FEF97E40197F1F797
:1002200000C000004298089597DF86E69EE001979F
:10023000F1F7000088E2D3DF81E0D1DF86E0CFDF95
:100240008EE0CDDF80E8CBCF0895823069F018F4DE
:10025000813031F00895833059F0843069F0089589
:100260008FE7860FBCCF08958FEB860FB8CF089528
:1002700083E9860FB4CF089583ED860FB0CF08953C
:10028000CF93C42FE2DF88B18F7088B988B19C2FDB
:10029000907F892B88B9409A4198429A8FEF97E4D2
:1002A0000197F1F700C00000429888B18F7088B9BB
:1002B00088B1C295C07FC82BC8B9409A4198429A6C
:1002C0008FEF97E40197F1F700C000004298CF91BB
:1002D00008950F931F93CF93DF93D82FC62FFA0162
:1002E0004081442361F08F010F5F1F4F6C2F8D2FD2
:1002F000C7DFCF5FF80141918F014111F7CFDF9147
:0C030000CF911F910F910895F894FFCF4A
:10030C00652D59616E747261004949542020424F29
:06031C004D4241590000B2
:00000001FF
